:020000040800F2
:10000000005000204D270008E5160008EB160008F8
:10001000F1160008F7160008FD16000800000000A1
:1000200000000000000000000000000003170008AE
:100030000F170008000000001B1700082717000812
:1000400095270008952700089527000895270008A0
:100050009527000895270008952700089527000890
:100060009527000895270008952700089527000880
:100070009527000895270008952700089527000870
:100080009527000895270008952700089527000860
:100090009527000895270008952700089527000850
:1000A0009527000895270008952700089527000840
:1000B0009527000895270008952700089527000830
:1000C0009527000895270008952700089527000820
:1000D0009527000895270008952700089527000810
:1000E00095270008952700089527000800000000C4
:1000F0000000000000000000000000000000000000
:0C01000000000000000000005FF808F1A3
:1001100010B5054C237833B9044B13B10448AFF341
:1001200000800123237010BD4C0800200000000057
:10013000602C000808B5034B1BB103490348AFF31B
:10014000008008BD0000000050080020602C00085E
:1001500080B5ADF5CA5D84B002AF01F023FA07F5B2
:10016000C95303F10C03184600F052FC304B07F55D
:10017000C95202F1100213605A2307F5C85202F166
:100180001C0213600A2307F5C9521360002307F508
:10019000C95202F104021360012307F5C95202F1AA
:1001A0000802136007F10803083B184600F0E4FB5F
:1001B00007F5C95202F10C0207F10803083B11468A
:1001C000184600F050FB0A2307F5CA5202F1040258
:1001D0001360142307F5CA5213601E2307F5C95292
:1001E00002F11C021360282307F5C95202F118021C
:1001F000136007F10800083807F5C95303F1180325
:100200001B68009307F5C95303F11C031B6807F52E
:10021000CA52126807F5CA5101F10401096800F0D9
:1002200081FA07F5C95303F114031860FEE700BF14
:10023000450D000880B483B000AF7860074A7B6842
:100240001A607B6800221A717B6800229A607B68C2
:1002500018460C37BD4680BC704700BF802C000894
:1002600080B483B000AF7860044A7B681A607B6812
:1002700018460C37BD4680BC704700BF802C000874
:1002800080B582B000AF78607868FFF7E9FF7868E2
:1002900002F082FA7B6818460837BD4680BD80B4FC
:1002A00083B000AF78607B681B7918460C37BD4679
:1002B00080BC704780B483B000AF78600B46FB70A1
:1002C0007B68FA781A7100BF0C37BD4680BC704756
:1002D00080B582B000AF78607B681846FFF7AAFF50
:1002E000074A7B681A607B6800211846FFF7E2FF27
:1002F0007B6800229A607B6818460837BD4680BD3F
:10030000902C000880B582B000AF7860054A7B6809
:100310001A607B681846FFF7A3FF7B68184608370A
:10032000BD4680BD902C000880B582B000AF7860DB
:100330007868FFF7E7FF786802F02EFA7B681846C6
:100340000837BD4680BD80B400AF024B1846BD469D
:1003500080BC70476808002080B582B000AF78602C
:1003600039607B68012B07D13B684FF6FF729342DF
:1003700002D10948FFF7ACFF7B68002B07D13B682F
:100380004FF6FF72934202D10348FFF7BBFF00BF55
:100390000837BD4680BD00BF6808002080B500AFAB
:1003A0004FF6FF710120FFF7D7FF80BD80B500AF8A
:1003B0004FF6FF710020FFF7CFFF80BD80B483B000
:1003C00000AF7860074A7B681A607B6800221A7168
:1003D0007B6800229A607B6818460C37BD4680BC5B
:1003E000704700BFA02C000880B483B000AF7860D5
:1003F000044A7B681A607B6818460C37BD4680BC8F
:10040000704700BFA02C000880B582B000AF7860B4
:100410007868FFF7E9FF786802F0BEF97B68184654
:100420000837BD4680BD80B483B000AF78607B687C
:100430001B7918460C37BD4680BC704780B582B02A
:1004400000AF78600B46FB707B68FA781A717B68A6
:100450009B68002B04D07B689B68FA78104698470D
:1004600000BF0837BD4680BD80B582B000AF786060
:100470007B681846FFF7A2FF074A7B681A607B6813
:1004800000211846FFF7DAFF7B6800229A607B683C
:1004900018460837BD4680BDB02C000880B582B034
:1004A00000AF7860054A7B681A607B681846FFF7E2
:1004B0009BFF7B6818460837BD4680BDB02C0008FE
:1004C00080B582B000AF78607868FFF7E7FF7868A2
:1004D00002F062F97B6818460837BD4680BD80B4DB
:1004E00000AF024B1846BD4680BC70477408002020
:1004F00080B582B000AF786039607B68012B07D18E
:100500003B684FF6FF72934202D10948FFF7ACFFF8
:100510007B68002B07D13B684FF6FF72934202D1F4
:100520000348FFF7BBFF00BF0837BD4680BD00BFD3
:100530007408002080B500AF4FF6FF710120FFF76F
:10054000D7FF80BD80B500AF4FF6FF710020FFF7E9
:10055000CFFF80BD80B586B000AFF860B9607A602B
:100560003B60FB6801229A60F86800F0FCF9002308
:100570007B61FB689B687A699A4223D2FA687B693F
:100580009B0113441833184640231A46002102F0F9
:1005900037F9FA687B699B01134418335A221A60B1
:1005A000FA687B699B0113441C330A221A60FA68BB
:1005B0007B699B011344243301221A607B69013358
:1005C0007B61D6E700BF1837BD4680BD82B080B5DD
:1005D00084B002AF7860396007F1100181E80C0047
:1005E000FB69009307F110030ECB386800F087FA1F
:1005F000034618460837BD46BDE8804002B0704744
:1006000080B483B000AF786039603B68DB68012B51
:100610000CBF01230023DBB218460C37BD4680BC5B
:10062000704790B58BB002AF786007F108030022E5
:100630001A605A609A60DA607B685B68BB6100236D
:10064000FB61BB699B0118337A68134419467868CB
:10065000FFF7D6FF0346002B5FD07A68BB699B018A
:100660001344183307F108040FCB84E80F007B68AC
:10067000DC686A4607F1100393E8030082E8030090
:1006800007F108030CCB21467868FFF79FFFF8615C
:10069000FB69002B01D0FB6940E07A68BB699B01D4
:1006A0001344283307F108040FCB84E80F007B685C
:1006B0001C696A4607F1100393E8030082E803000F
:1006C00007F108030CCB21467868FFF77FFFF8613C
:1006D000FB69002B01D0FB6920E07A68BB699B01B4
:1006E0001344383307F108040FCB84E80F007B680C
:1006F0005C696A4607F1100393E8030082E803008F
:1007000007F108030CCB21467868FFF75FFFF8611B
:10071000FB69002B01D0FB6900E0FB691846243718
:10072000BD4690BD80B586B002AFF860B9607A6012
:100730003B60FB684FF0FF325A60FB6800229A6012
:10074000F86800F052F80346002B14BF0123002381
:10075000DBB2002B02D04FF0FF3335E0BB690093D2
:100760003B687A68B968F868FFF7F4FEFB689B6835
:10077000002B08D1FB6803F580531A464FF0FF3376
:10078000C2F818391BE0FB685B685A1CFB685A60AA
:10079000F868FFF746FF0246FB6803F58053C3F88D
:1007A0001829FB6803F58053D3F81839002B06D1BC
:1007B000FB685A68FB689B689A4200D2E3E7FB68D3
:1007C00003F58053D3F8183918461037BD4680BD5D
:1007D00080B582B000AF78603960386800F02DFADB
:1007E000034618460837BD4680BD80B584B000AFCB
:1007F00078600023FB60FB68022B23DC7A68FB68CF
:1008000002339B0013445B68002B02D14FF0FF338F
:1008100019E07A68FB6802339B0013445B68194651
:100820007868FFF7D5FF0346002B14BF0123002390
:10083000DBB2002B02D04FF0FF3304E0FB68013342
:10084000FB60D8E7002318461037BD4680BD80B452
:1008500085B000AF78600023FB60FB681846143752
:10086000BD4680BC704780B485B000AF7860396009
:100870000023FB60FB68022B14DC7A68FB68023300
:100880009B0013445B68002B08D17A68FB68023335
:100890009B0013443A685A6000BF03E0FB680133D1
:1008A000FB60E7E700BF1437BD4680BC704780B4EB
:1008B00085B000AF786039600023FB60FB68022BD5
:1008C00013DC7A68FB6802339B0013445B683A6868
:1008D0009A4206D17A68FB6802339B0013440022D7
:1008E0005A60FB680133FB60E8E700BF1437BD4680
:1008F00080BC704780B485B000AF78600023FB6097
:10090000FB68022B0ADC7A68FB6802339B00134405
:1009100000225A60FB680133FB60F1E700BF143727
:10092000BD4680BC704780B485B000AF78600023BE
:10093000FB60FB6818461437BD4680BC704780B426
:1009400083B000AF7860396000BF0C37BD4680BC13
:10095000704780B483B000AF7860396000BF0C3757
:10096000BD4680BC704780B483B000AF786000BFE4
:100970000C37BD4680BC704780B485B000AF78604E
:10098000124A7B681A607B6800225A607B680022EA
:100990009A600023FB60FB68022B0ADC7A68FB6824
:1009A00002339B00134400225A60FB680133FB6052
:1009B000F1E77B6803F580531A460023C2F8183923
:1009C0007B6818461437BD4680BC7047C02C0008B1
:1009D00080B483B000AF7860044A7B681A607B689B
:1009E00018460C37BD4680BC704700BFC02C0008BD
:1009F00080B582B000AF78607868FFF7E9FF78686B
:100A000001F0CAFE7B6818460837BD4680BD00BFAE
:100A100080B483B000AF78607B6800221A707B6876
:100A200000225A707B6818460C37BD4680BC704760
:100A300080B483B000AF78607B6818460C37BD4641
:100A400080BC704780B483B000AF78607B681B784F
:100A500018460C37BD4680BC704780B483B000AFE9
:100A600078607B685B7818460C37BD4680BC704761
:100A700080B483B000AF78600B46FB707B68FA7877
:100A80005A7000BF0C37BD4680BC704780B483B03D
:100A900000AF78600B46FB707B68FA781A7000BF75
:100AA0000C37BD4680BC704784B080B485B000AFC1
:100AB000786007F11C0080E80E000023FB607B6A71
:100AC000002B06D17B681B781A46FB691344FB6038
:100AD00005E07B681B781A46FB69D31AFB60FB684C
:100AE000002B05DBFB68B32B02DD4FF0FF3300E08A
:100AF000002318461437BD4680BC04B0704784B04C
:100B000080B588B002AF786007F1240080E80E005D
:100B10007B6A184600F0A2FA31A3D3E9002300F063
:100B200031FC02460B461046194600F013FD034601
:100B30007B617A6ABB6A92FBF3F33B613B694FF4DA
:100B40007A7203FB02F27B6992FBF3F3DA0F134430
:100B50005B10FB603B6B009307F124030ECB7868BE
:100B6000FFF7A2FF0346002B0CBF01230023DBB2DB
:100B7000002B0ED07B69002B09D0FB6AFA687969DB
:100B8000786800F031F8FB6A002B0FD103E0FF23F7
:100B90001DE0FF231BE07B681A787B6ADBB21344FD
:100BA000DBB219467868FFF771FF09E07B681A78B5
:100BB0007B6ADBB2D31ADBB219467868FFF766FFAF
:100BC000BB6ADBB219467868FFF752FF002318466C
:100BD0001837BD46BDE8804004B07047AFF30080D1
:100BE000CDCCCCCCCCCCFC3F80B586B000AFF8608F
:100BF000B9607A603B6000233B6000237B617A69C7
:100C0000BB689A4215DAFB685B68012098477B68ED
:100C1000DBB2184600F02CFEFB685B6800209847AA
:100C20007B68DBB2184600F023FE7B6901337B61F1
:100C3000E5E700BF1837BD4680BD80B584B000AF82
:100C400078607B681B78184600F008FA0EA3D3E999
:100C5000002300F097FB02460B461046194600F0B1
:100C600079FC0346FB60FB68002B05D001230122C1
:100C7000F9687868FFF7B8FF002318461037BD46BB
:100C800080BD00BFAFF30080CDCCCCCCCCCCFC3F42
:100C900080B582B000AF786039603968786801F05B
:100CA00073F800BF0837BD4680BD80B582B000AF85
:100CB00078600B467B807B881946786801F04FF995
:100CC00000BF0837BD4680BD80B582B000AF7860F8
:100CD0000B467B807B881946786801F011F9034642
:100CE00018460837BD4680BD80B582B000AF786039
:100CF0000B467B8013467B707B78012B06D17A787C
:100D00007B881946786801F012F905E07A787B88CB
:100D10001946786801F00BF900BF0837BD4680BD61
:100D200080B500AF00F03EFC00BF80BD80B500AFD5
:100D30004FF480510248FFF7B8FF00BF80BD00BFED
:100D40000014014080B584B000AF0346FB710C4A2B
:100D500007F10F031360FB79002B02D10023FB7313
:100D600001E00123FB73064B1B681B781A46022126
:100D70000448FFF7B9FF00BF1037BD4680BD00BF74
:100D8000880800200008014080B582B000AF084A02
:100D9000FB1D13604FF400710648FFF795FF0346F3
:100DA000FB71034B1B681B7818460837BD4680BD96
:100DB000840800200010014081F0004102E000BFE3
:100DC00083F0004330B54FEA41044FEA430594EA0B
:100DD000050F08BF90EA020F1FBF54EA000C55EA46
:100DE000020C7FEA645C7FEA655C00F0E2804FEA17
:100DF0005454D4EB5555B8BF6D420CDD2C4480EAF9
:100E0000020281EA030382EA000083EA010180EA28
:100E1000020281EA0303362D88BF30BD11F0004F76
:100E20004FEA01314FF4801C4CEA113102D04042AC
:100E300061EB410113F0004F4FEA03334CEA1333E7
:100E400002D0524263EB430394EA050F00F0A780FF
:100E5000A4F10104D5F1200E0DDB02FA0EFC22FAFA
:100E600005F2801841F1000103FA0EF2801843FAEE
:100E700005F359410EE0A5F120050EF1200E012ADF
:100E800003FA0EFC28BF4CF0020C43FA05F3C0181D
:100E900051EBE37101F0004507D54FF0000EDCF196
:100EA000000C7EEB00006EEB0101B1F5801F1BD33F
:100EB000B1F5001F0CD349085FEA30004FEA3C0C43
:100EC00004F101044FEA445212F5800F80F09A8039
:100ED000BCF1004F08BF5FEA500C50F1000041EB3D
:100EE000045141EA050130BD5FEA4C0C404141EB41
:100EF0000101013C28BFB1F5801FE9D291F0000F3C
:100F000004BF01460020B1FA81F308BF2033A3F1EA
:100F10000B03B3F120020CDA0C3208DD02F1140CE1
:100F2000C2F10C0201FA0CF021FA02F10CE002F11C
:100F30001402D8BFC2F1200C01FA02F120FA0CFC15
:100F4000DCBF41EA0C019040E41AA2BF01EB04515E
:100F5000294330BD6FEA04041F3C1CDA0C340EDC5C
:100F600004F11404C4F1200220FA04F001FA02F39F
:100F700040EA030021FA04F345EA030130BDC4F15D
:100F80000C04C4F1200220FA02F001FA04F340EA52
:100F90000300294630BD21FA04F0294630BD94F003
:100FA000000F83F4801306BF81F480110134013DEA
:100FB0004EE77FEA645C18BF7FEA655C29D094EA5B
:100FC000050F08BF90EA020F05D054EA000C04BFD9
:100FD0001946104630BD91EA030F1EBF00210020C4
:100FE00030BD5FEA545C05D14000494128BF41F063
:100FF000004130BD14F580043CBF01F5801130BDC7
:1010000001F0004545F0FE4141F470014FF0000051
:1010100030BD7FEA645C1ABF194610467FEA655C02
:101020001CBF0B46024650EA013406BF52EA0335A4
:1010300091EA030F41F4002130BD00BF90F0000F92
:1010400004BF0021704730B54FF4806404F13204CE
:101050004FF000054FF0000150E700BF90F0000F87
:1010600004BF0021704730B54FF4806404F13204AE
:1010700010F0004548BF40424FF000013EE700BF7E
:1010800042004FEAE2014FEA31014FEA02701FBF0E
:1010900012F07F4393F07F4F81F06051704732F040
:1010A0007F4208BF704793F07F4F04BF41F4002197
:1010B000704730B54FF4607401F0004521F00041F5
:1010C0001CE700BF50EA010208BF704730B54FF07F
:1010D00000050AE050EA010208BF704730B511F080
:1010E000004502D5404261EB41014FF4806404F1B8
:1010F00032045FEA915C3FF4D8AE4FF003025FEA3E
:10110000DC0C18BF03325FEADC0C18BF033202EBC1
:10111000DC02C2F1200300FA03FC20FA02F001FA1B
:1011200003FE40EA0E0021FA02F11444BDE600BFBE
:1011300070B54FF0FF0C4CF4E06C1CEA11541DBF6D
:101140001CEA135594EA0C0F95EA0C0F00F0DEF838
:101150002C4481EA030621EA4C5123EA4C5350EA1D
:10116000013518BF52EA033541F4801143F480136E
:1011700038D0A0FB02CE4FF00005E1FB02E506F0FF
:101180000042E0FB03E54FF00006E1FB03569CF054
:10119000000F18BF4EF0010EA4F1FF04B6F5007F5A
:1011A00064F5407404D25FEA4E0E6D4146EB0606CC
:1011B00042EAC62141EA55514FEAC52040EA5E5055
:1011C0004FEACE2EB4F1FD0C88BFBCF5E06F1ED8FF
:1011D000BEF1004F08BF5FEA500E50F1000041EB36
:1011E000045170BD06F0004646EA010140EA0200E3
:1011F00081EA0301B4EB5C04C2BFD4EB0C0541EA05
:10120000045170BD41F480114FF0000E013C00F319
:10121000AB8014F1360FDEBF002001F0004170BD3D
:10122000C4F10004203C35DA0C341BDC04F1140456
:10123000C4F1200500FA05F320FA04F001FA05F2E2
:1012400040EA020001F0004221F0004110EBD370AF
:1012500021FA04F642EB06015EEA430E08BF20EADB
:10126000D37070BDC4F10C04C4F1200500FA04F37E
:1012700020FA05F001FA04F240EA020001F0004110
:1012800010EBD37041F100015EEA430E08BF20EA83
:10129000D37070BDC4F1200500FA05F24EEA020ECB
:1012A00020FA04F301FA05F243EA020321FA04F0FA
:1012B00001F0004121FA04F220EA020000EBD370B1
:1012C0005EEA430E08BF20EAD37070BD94F0000FB1
:1012D0000FD101F00046400041EB010111F4801FE5
:1012E00008BF013CF7D041EA060195F0000F18BF96
:1012F000704703F00046520043EB030313F4801FD2
:1013000008BF013DF7D043EA0603704794EA0C0F8B
:101310000CEA135518BF95EA0C0F0CD050EA4106A1
:1013200018BF52EA4306D1D181EA030101F000411E
:101330004FF0000070BD50EA410606BF1046194646
:1013400052EA430619D094EA0C0F02D150EA013652
:1013500013D195EA0C0F05D152EA03361CBF104693
:1013600019460AD181EA030101F0004141F0FE4132
:1013700041F470014FF0000070BD41F0FE4141F4B6
:10138000780170BD70B54FF0FF0C4CF4E06C1CEAB6
:1013900011541DBF1CEA135594EA0C0F95EA0C0F6B
:1013A00000F0A7F8A4EB050481EA030E52EA033526
:1013B0004FEA013100F088804FEA03334FF0805547
:1013C00045EA131343EA12634FEA022245EA111574
:1013D00045EA10654FEA00260EF000419D4208BF25
:1013E000964244F1FD0404F5407402D25B084FEAD2
:1013F0003202B61A65EB03055B084FEA32024FF47E
:1014000080104FF4002CB6EB020E75EB030E22BFDA
:10141000B61A754640EA0C005B084FEA3202B6EB9A
:10142000020E75EB030E22BFB61A754640EA5C0049
:101430005B084FEA3202B6EB020E75EB030E22BFD9
:10144000B61A754640EA9C005B084FEA3202B6EBDA
:10145000020E75EB030E22BFB61A754640EADC0099
:1014600055EA060E18D04FEA051545EA16754FEAFB
:1014700006164FEAC30343EA52734FEAC2025FEA19
:101480001C1CC0D111F4801F0BD141EA00014FF0A8
:1014900000004FF0004CB6E711F4801F04BF014379
:1014A0000020B4F1FD0C88BFBCF5E06F3FF6AFAE95
:1014B000B5EB030C04BFB6EB020C5FEA500C50F125
:1014C000000041EB045170BD0EF0004E4EEA1131A8
:1014D00014EB5C04C2BFD4EB0C0541EA045170BDAF
:1014E00041F480114FF0000E013C90E645EA060EF3
:1014F0008DE60CEA135594EA0C0F08BF95EA0C0F21
:101500003FF43BAF94EA0C0F0AD150EA01347FF468
:1015100034AF95EA0C0F7FF425AF104619462CE73F
:1015200095EA0C0F06D152EA03353FF4FDAE1046A2
:10153000194622E750EA410618BF52EA43067FF4F3
:10154000C5AE50EA41047FF40DAF52EA43057FF483
:10155000EBAE12E74FEA410212F5001215D211D597
:101560006FF47873B3EB625212D94FEAC12343F0A0
:10157000004343EA505311F0004F23FA02F018BF22
:10158000404270474FF00000704750EA013005D1EB
:1015900011F0004008BF6FF0004070474FF00000AE
:1015A000704700BF80B500AF00F000F900F005F80B
:1015B00000F03EF80023184680BD80B590B000AF23
:1015C00007F1180328220021184601F019F93B1DE4
:1015D00000221A605A609A60DA601A610223BB61C5
:1015E0000123BB621023FB6200237B6307F1180316
:1015F000184600F0CDFC0346002B01D000F04AF85D
:101600000F237B600023BB600023FB6000233B6152
:1016100000237B613B1D0021184600F03BFF034681
:10162000002B01D000F036F800BF4037BD4680BD2A
:1016300080B586B000AF07F1080300221A605A6037
:101640009A60DA60114B9B69104A43F0040393617E
:101650000E4B9B6903F004037B607B680022022130
:101660000B4800F064FC0223BB600123FB600023F5
:101670003B6102237B6107F108031946044800F02F
:10168000FFF900BF1837BD4680BD00BF0010024003
:101690000008014080B400AF72B600BFFEE7000052
:1016A00080B483B000AF0E4B9B690D4A43F0010339
:1016B00093610B4B9B6903F001037B607B68084BD4
:1016C000DB69074A43F08053D361054BDB6903F0C4
:1016D00080533B603B6800BF0C37BD4680BC704701
:1016E0000010024080B400AFFEE780B400AFFEE718
:1016F00080B400AFFEE780B400AFFEE780B400AF77
:10170000FEE780B400AF00BFBD4680BC704780B428
:1017100000AF00BFBD4680BC704780B400AF00BFC3
:10172000BD4680BC704780B500AF00F085F800BFB3
:1017300080BD000080B586B000AF7860144A154BBC
:10174000D31A7B617B693B61134B1B68002B02D171
:10175000114B124A1A60104B1A687B6813443A699D
:101760009A4207D201F01AF803460C221A604FF091
:10177000FF3309E0084B1B68FB60074B1A687B6866
:101780001344054A1360FB6818461837BD4680BDF0
:1017900000500020000400008C080020D008002029
:1017A00080B400AF00BFBD4680BC704780B500AFBD
:1017B000084B1B68074A43F010031360032000F036
:1017C0002BF90F2000F008F8FFF76AFF00231846F6
:1017D00080BD00BF0020024080B582B000AF7860BD
:1017E000124B1A68124B1B7819464FF47A73B3FBED
:1017F000F1F3B2FBF3F3184600F035F90346002B82
:1018000001D001230EE07B680F2B0AD800227968F3
:101810004FF0FF3000F00BF9064A7B68136000239D
:1018200000E0012318460837BD4680BD00000020B7
:10183000080000200400002080B400AF054B1B7896
:101840001A46054B1B681344034A136000BFBD468C
:1018500080BC7047080000209008002080B400AFD2
:10186000024B1B681846BD4680BC7047900800209C
:1018700080B584B000AF7860FFF7F0FFB8607B6898
:10188000FB60FB68B3F1FF3F05D00A4B1B781A469B
:10189000FB681344FB6000BFFFF7E0FF0246BB6834
:1018A000D31AFA689A42F7D800BF00BF1037BD4676
:1018B00080BD00BF0800002080B485B000AF786014
:1018C0007B6803F00703FB600C4BDB68BB60BA6806
:1018D0004FF6FF031340BB60FB681A02BB6813435B
:1018E00043F0BF6343F40033BB60044ABB68D3607A
:1018F00000BF1437BD4680BC704700BF00ED00E05C
:1019000080B400AF044BDB681B0A03F007031846E2
:10191000BD4680BC704700BF00ED00E080B483B0DE
:1019200000AF03463960FB7197F90730002B0ADBE3
:101930003B68DAB20C4997F907301201D2B20B4476
:1019400083F800230AE03B68DAB20849FB7903F028
:101950000F03043B1201D2B20B441A7600BF0C37BE
:10196000BD4680BC704700BF00E100E000ED00E034
:1019700080B489B000AFF860B9607A60FB6803F0AA
:101980000703FB61FB69C3F10703042B28BF042392
:10199000BB61FB690433062B02D9FB69033B00E002
:1019A00000237B614FF0FF32BB6902FA03F3DA4395
:1019B000BB681A407B699A404FF0FF317B6901FA9E
:1019C00003F3D9437B680B40134318462437BD46C5
:1019D00080BC704780B582B000AF78607B68013B07
:1019E000B3F1807F01D301230FE00A4A7B68013BFA
:1019F00053600F214FF0FF30FFF790FF054B00229F
:101A00009A60044B07221A60002318460837BD4627
:101A100080BD00BF10E000E080B582B000AF78600C
:101A20007868FFF749FF00BF0837BD4680BD80B525
:101A300086B000AF0346B9607A60FB7300237B6118
:101A4000FFF75EFF78617A68B9687869FFF790FF01
:101A5000024697F90F3011461846FFF75FFF00BFA7
:101A60001837BD4680BD80B582B000AF7860786819
:101A7000FFF7B0FF034618460837BD4680BD00009B
:101A800080B48BB000AF7860396000237B620023A4
:101A90003B6269E101227B6A02FA03F3FB613B6866
:101AA0001B68FA691340BB61BA69FB699A4240F04E
:101AB00058813B685B689A4A93425ED0984A934249
:101AC00075D8984A934258D0964A93426FD8964A0E
:101AD000934252D0944A934269D8944A93424CD04C
:101AE000924A934263D8924A934246D0904A934294
:101AF0005DD8122B2AD8122B59D801A252F823F004
:101B00007B1B0008551B0008671B0008A91B000869
:101B1000AF1B0008AF1B0008AF1B0008AF1B00087D
:101B2000AF1B0008AF1B0008AF1B0008AF1B00086D
:101B3000AF1B0008AF1B0008AF1B0008AF1B00085D
:101B4000AF1B00085D1B0008711B0008794A934217
:101B500013D02CE03B68DB683B6229E03B68DB6824
:101B600004333B6224E03B68DB6808333B621FE0E0
:101B70003B68DB680C333B621AE03B689B68002BD8
:101B800002D104233B6213E03B689B68012B05D123
:101B900008233B627B68FA691A6109E008233B620B
:101BA0007B68FA695A6103E000233B6200E000BFF2
:101BB000BB69FF2B01D87B6801E07B6804337B6144
:101BC000BB69FF2B02D87B6A9B0002E07B6A083B63
:101BD0009B003B617B691A680F213B6901FA03F3A3
:101BE000DB431A40396A3B6901FA03F31A437B6904
:101BF0001A603B685B6803F08053002B00F0B180F3
:101C00004D4B9B694C4A43F0010393614A4B9B69DE
:101C100003F00103BB60BB68484A7B6A9B08023340
:101C200052F82330FB607B6A03F003039B000F2212
:101C300002FA03F3DB43FA681340FB607B68404A17
:101C4000934213D07B683F4A93420DD07B683E4A53
:101C5000934207D07B683D4A934201D1032306E0BB
:101C6000042304E0022302E0012300E000237A6A57
:101C700002F0030292009340FA681343FB602F497D
:101C80007B6A9B080233FA6841F823203B685B6853
:101C900003F48013002B06D02D4B9A682C49BB69A6
:101CA00013438B6006E02A4B9A68BB69DB432849E3
:101CB00013408B603B685B6803F40013002B06D075
:101CC000234BDA682249BB691343CB6006E0204B03
:101CD000DA68BB69DB431E491340CB603B685B6835
:101CE00003F40033002B06D0194B5A681849BB691E
:101CF00013434B6006E0164B5A68BB69DB4314493B
:101D000013404B603B685B6803F48033002B21D0A9
:101D10000F4B1A680E49BB6913430B6021E000BFEB
:101D200000003210000031100000221000002110CD
:101D300000001210000011100010024000000140CD
:101D400000080140000C0140001001400014014057
:101D5000000401400B4B1A68BB69DB43094913407F
:101D60000B607B6A01337B623B681A687B6A22FAEC
:101D700003F3002B7FF48EAE00BF00BF2C37BD46AF
:101D800080BC70470004014080B489B000AF786027
:101D900039600023FB619AE00122FB6902FA03F338
:101DA0003A681340BB61BB69002B00F08D804E4A3E
:101DB000FB699B08023352F823307B61FB6903F017
:101DC00003039B000F2202FA03F37A6913407B613D
:101DD0007B68464A934213D07B68454A93420DD0B4
:101DE0007B68444A934207D07B68434A934201D1BF
:101DF000032306E0042304E0022302E0012300E0C1
:101E00000023FA6902F00302920093407A699A4231
:101E100032D13A4B1A68BB69DB43384913400B6037
:101E2000364B5A68BB69DB43344913404B60334B34
:101E3000DA68BB69DB4331491340CB602F4B9A68AA
:101E4000BB69DB432D4913408B60FB6903F003033F
:101E50009B000F2202FA03F37B61234AFB699B0874
:101E6000023352F823107B69DA431F48FB699B0851
:101E70000A40023340F82320BB69FF2B01D87B685E
:101E800001E07B6804333B61BB69FF2B02D8FB692F
:101E90009B0002E0FB69083B9B00FB603B691A6802
:101EA0000F21FB6801FA03F3DB431A400421FB68AE
:101EB00001FA03F31A433B691A607B68DA68BB696D
:101EC000DB431A407B68DA60FB690133FB613A68E7
:101ED000FB6922FA03F3002B7FF45EAF00BF00BF63
:101EE0002437BD4680BC7047000001400008014017
:101EF000000C0140001001400014014000040140AA
:101F000080B485B000AF78600B467B807B689A68B0
:101F10007B881340002B02D00123FB7301E00023D8
:101F2000FB73FB7B18461437BD4680BC704780B4FA
:101F300083B000AF78600B467B8013467B707B7864
:101F4000002B03D07A887B681A6103E07B881A042F
:101F50007B681A6100BF0C37BD4680BC704780B4F7
:101F600085B000AF78600B467B807B68DB68FB60E8
:101F70007A88FB6813401A04FB68D9437B880B40BE
:101F80001A437B681A6100BF1437BD4680BC704796
:101F900080B586B000AF78607B68002B01D101234B
:101FA00072E27B681B6803F00103002B00F087805E
:101FB000924B5B6803F00C03042B0CD08F4B5B68D7
:101FC00003F00C03082B12D18C4B5B6803F48033B5
:101FD000B3F5803F0BD1894B1B6803F40033002B12
:101FE0006CD07B685B68002B68D101234CE27B6876
:101FF0005B68B3F5803F06D1804B1B687F4A43F492
:10200000803313602EE07B685B68002B0CD17B4B28
:102010001B687A4A23F480331360784B1B68774A35
:1020200023F4802313601DE07B685B68B3F5A02F69
:102030000CD1724B1B68714A43F4802313606F4BC1
:102040001B686E4A43F4803313600BE06B4B1B68D4
:102050006A4A23F480331360684B1B68674A23F491
:10206000802313607B685B68002B13D0FFF7F6FBBF
:10207000386108E0FFF7F2FB02463B69D31A642B94
:1020800001D9032300E25D4B1B6803F40033002BEE
:10209000F0D014E0FFF7E2FB386108E0FFF7DEFB69
:1020A00002463B69D31A642B01D90323ECE1534B5D
:1020B0001B6803F40033002BF0D100E000BF7B6805
:1020C0001B6803F00203002B63D04C4B5B6803F0EA
:1020D0000C03002B0BD0494B5B6803F00C03082B5F
:1020E0001CD1464B5B6803F48033002B16D1434B65
:1020F0001B6803F00203002B05D07B681B69012BD2
:1021000001D00123C0E13D4B1B6823F0F8027B683E
:102110005B69DB00394913430B603AE07B681B695C
:10212000002B20D0364B01221A60FFF797FB386155
:1021300008E0FFF793FB02463B69D31A022B01D953
:102140000323A1E12D4B1B6803F00203002BF0D009
:102150002A4B1B6823F0F8027B685B69DB00274988
:1021600013430B6015E0264B00221A60FFF776FB45
:10217000386108E0FFF772FB02463B69D31A022B75
:1021800001D9032380E11D4B1B6803F00203002BE0
:10219000F0D17B681B6803F00803002B3AD07B6802
:1021A0009B69002B19D0174B01221A60FFF756FBD1
:1021B000386108E0FFF752FB02463B69D31A022B55
:1021C00001D9032360E10D4B5B6A03F00203002B8E
:1021D000F0D0012000F09CFA1CE00A4B00221A60AB
:1021E000FFF73CFB38610FE0FFF738FB02463B6925
:1021F000D31A022B08D9032346E100BF0010024086
:102200000000424280044242924B5B6A03F00203A8
:10221000002BE9D17B681B6803F00403002B00F05E
:10222000A6800023FB758B4BDB6903F08053002BEA
:102230000DD1884BDB69874A43F08053D361854BCE
:10224000DB6903F08053BB60BB680123FB75824BE5
:102250001B6803F48073002B18D17F4B1B687E4AE8
:1022600043F480731360FFF7F9FA386108E0FFF771
:10227000F5FA02463B69D31A642B01D9032303E123
:10228000754B1B6803F48073002BF0D07B68DB6810
:10229000012B06D16F4B1B6A6E4A43F00103136298
:1022A0002DE07B68DB68002B0CD16A4B1B6A694A06
:1022B00023F001031362674B1B6A664A23F0040391
:1022C00013621CE07B68DB68052B0CD1614B1B6A39
:1022D000604A43F0040313625E4B1B6A5D4A43F09D
:1022E000010313620BE05B4B1B6A5A4A23F00103A4
:1022F0001362584B1B6A574A23F0040313627B682E
:10230000DB68002B15D0FFF7A9FA38610AE0FFF768
:10231000A5FA02463B69D31A41F28832934201D9A9
:102320000323B1E04B4B1B6A03F00203002BEED0FA
:1023300014E0FFF793FA38610AE0FFF78FFA0246DC
:102340003B69D31A41F28832934201D903239BE0BF
:10235000404B1B6A03F00203002BEED1FB7D012BE7
:1023600005D13C4BDB693B4A23F08053D3617B684A
:10237000DB69002B00F08780364B5B6803F00C03B1
:10238000082B61D07B68DB69022B46D1334B0022DE
:102390001A60FFF763FA386108E0FFF75FFA024658
:1023A0003B69D31A022B01D903236DE0294B1B682B
:1023B00003F00073002BF0D17B681B6AB3F5803FFC
:1023C00008D1244B5B6823F400327B689B68214969
:1023D00013434B601F4B5B6823F474127B68196ACC
:1023E0007B685B6A0B431B4913434B601B4B012209
:1023F0001A60FFF733FA386108E0FFF72FFA024658
:102400003B69D31A022B01D903233DE0114B1B6812
:1024100003F00073002BF0D035E0104B00221A605F
:10242000FFF71CFA386108E0FFF718FA02463B692B
:10243000D31A022B01D9032326E0064B1B6803F0B5
:102440000073002BF0D11EE07B68DB69012B07D104
:10245000012319E000100240007000406000424279
:102460000B4B5B68FB60FB6803F480327B681B6A84
:102470009A4206D1FB6803F470127B685B6A9A4249
:1024800001D0012300E0002318461837BD4680BD67
:102490000010024080B584B000AF786039607B687E
:1024A000002B01D10123D0E06A4B1B6803F0070326
:1024B0003A689A4210D9674B1B6823F007026549B6
:1024C0003B6813430B60634B1B6803F007033A68D8
:1024D0009A4201D00123B8E07B681B6803F0020335
:1024E000002B20D07B681B6803F00403002B05D071
:1024F000594B5B68584A43F4E06353607B681B6840
:1025000003F00803002B05D0534B5B68524A43F499
:1025100060535360504B5B6823F0F0027B689B680C
:102520004D4913434B607B681B6803F00103002B8C
:1025300040D07B685B68012B07D1474B1B6803F4D5
:102540000033002B15D101237FE07B685B68022BF1
:1025500007D1414B1B6803F00073002B09D1012305
:1025600073E03D4B1B6803F00203002B01D10123F4
:102570006BE0394B5B6823F003027B685B6836498C
:1025800013434B60FFF76AF9F8600AE0FFF766F95A
:102590000246FB68D31A41F28832934201D90323E1
:1025A00053E02D4B5B6803F00C027B685B689B007B
:1025B0009A42EBD1274B1B6803F007033A689A4213
:1025C00010D2244B1B6823F0070222493B681343B7
:1025D0000B60204B1B6803F007033A689A4201D056
:1025E000012332E07B681B6803F00403002B08D052
:1025F000194B5B6823F4E0627B68DB681649134380
:102600004B607B681B6803F00803002B09D0124B5A
:102610005B6823F460527B681B69DB000E4913433F
:102620004B6000F021F802460B4B5B681B0903F07E
:102630000F030A49CB5C22FA03F3094A1360094BE2
:102640001B681846FFF7C8F8002318461037BD4628
:1026500080BD00BF0020024000100240C82C0008CE
:10266000000000200400002080B487B000AF0023E9
:10267000FB600023BB6000237B6100237B600023A1
:102680003B611E4B5B68FB60FB6803F00C03042B93
:1026900002D0082B03D027E0194B3B6127E0FB68F1
:1026A0009B0C03F00F03174AD35C7B60FB6803F4B9
:1026B0008033002B10D0114B5B685B0C03F00103DF
:1026C000114AD35CBB607B680D4A03FB02F2BB6816
:1026D000B2FBF3F37B6104E07B680C4A02FB03F37B
:1026E0007B617B693B6102E0054B3B6100BF3B695D
:1026F00018461C37BD4680BC704700BF0010024022
:1027000000127A00D82C0008E82C000800093D00CF
:1027100080B485B000AF78600A4B1B680A4AA2FB00
:1027200003235B0A7A6802FB03F3FB6000BFFB68CC
:102730005A1EFA60002BF9D100BF00BF1437BD4606
:1027400080BC704700000020D34D6210FFF728F8CE
:102750000B480C490C4A002302E0D458C4500433FF
:10276000C4188C42F9D3094A094C002301E01360D4
:102770000432A242FBD300F017F8FDF7E9FC7047E2
:10278000000000204C080020142D00084C080020F8
:10279000CC080020FEE7000000F02AB8014B1868C2
:1027A000704700BF0C00002070B50D4E0D4D761B1C
:1027B000B61006D0002455F8043B01349847A642D1
:1027C000F9D1094E094D00F04BFA761BB61006D030
:1027D000002455F8043B01349847A642F9D170BD56
:1027E000F82C0008F82C0008082D0008F82C000828
:1027F000024B0146186800F0E9B800BF0C00002049
:10280000830730B548D0541E002A3FD00346CAB2D1
:1028100001E0013C3AD303F8012B9D07F9D1032CC9
:102820002DD9CDB245EA05250F2C45EA054536D907
:10283000A4F1100222F00F0C03F1200EE6444FEA3F
:10284000121C03F1100242E9045542E9025510320C
:102850007245F8D10CF1010214F00C0F03EB0212D7
:1028600004F00F0C13D0ACF1040323F00303043382
:10287000134442F8045B9342FBD10CF003042CB1E7
:10288000CAB21C4403F8012B9C42FBD130BD644604
:102890001346002CF4D1F9E703461446BFE71A4665
:1028A000A446E0E7014800F091B900BFC408002049
:1028B000014800F08DB900BFC4080020002238B5DF
:1028C000064D044608462A60FEF734FF431C00D03C
:1028D00038BD2B68002BFBD0236038BDC808002012
:1028E000024B13B1024800F005B870470000000029
:1028F00001290008002301461A46184600F06AB96B
:1029000038B5084B084D5B1B9C1007D0043B1D4499
:10291000013C55F804399847002CF9D1BDE83840FE
:1029200000F0A4B9142D0008082D0008F8B50C46D5
:10293000234F0646FFF7B6FFBB685D68C4F57E63AC
:1029400025F003050F332B4423F47F6323F00F039B
:10295000A3F58054B4F5805F07DB00213046FFF714
:10296000ADFFBB682B44984204D03046FFF7A0FF70
:102970000020F8BD30466142FFF7A0FF01300DD0C6
:10298000104ABB682D1B45F001055D601368304699
:102990001B1B1360FFF78CFF0120F8BD00213046A0
:1029A000FFF78CFFBA68831A0F2BDEDD43F00103BB
:1029B0005360054B03491B68C01A0860D5E700BF88
:1029C00038040020940800204008002000295ED030
:1029D000F8B50C460646FFF765FF54F8042C784F0F
:1029E000A4F1080522F001016818D7F808C043686F
:1029F000844523F0030300F08780D207436034D47A
:102A000054F8082C07F10804AD1A1144AA68A24230
:102A100068D000EB030CDCF804E0D5F80CC01EF025
:102A2000010FC2F80CC0CCF8082000F0918041F0F2
:102A300001036B600160B1F5007F31D24A09CB0818
:102A4000012191407A6801331143796007EBC30299
:102A500057F83310083AC5E9021247F83350CD60F1
:102A60003046BDE8F840FFF723BFC2185268D207CE
:102A70000ED4194407F108048368A34270D0C268D9
:102A8000DA60936041F001036B606950D3E77047EF
:102A900041F00103B1F5007F44F8043C0160CDD35F
:102AA000B1F5206F4FEA512347D28B0903F139006A
:102AB00003F13802C300F818FB580838984258D080
:102AC0005A6822F003028A4202D99B689842F7D1E1
:102AD000D868C5E9023085603046DD60BDE8F84061
:102AE000FFF7E6BEC2185268D20763D40B44D0E9A0
:102AF0000212CA60916043F001026A603046EB50F6
:102B0000BDE8F840FFF7D4BE0B44D10707D454F812
:102B1000082CAD1A1344D5E90212CA60916043F043
:102B200001026A60274ABD6012689A4298D8264B13
:102B300030461968FFF7FAFE92E7142B0AD9542B96
:102B40001FD80B0B03F16F0003F16E02C300B2E755
:102B5000194491E703F15C0003F15B02C300AAE7AB
:102B600041F00103C7E90455C5E902446B606950AF
:102B700076E70121921001FA02F279680A437A603D
:102B8000A7E7B3F5AA7F06D8CB0B03F1780003F1D2
:102B90007702C3008FE740F25452934206D88B0C61
:102BA00003F17D0003F17C02C30084E74FF47E73E0
:102BB0007E2280E741F001036B60016050E700BFB7
:102BC0003804002044080020BC080020704700BFE3
:102BD000704700BF2DE9F047DFF87CA00646DAF821
:102BE000000098460F469146FFF7F0FF1B4B1B680D
:102BF000D3F8484124B365681F2D26DC5EB96B1CF1
:102C00000235DAF80000636044F82570FFF7E0FF52
:102C10000020BDE8F087012304EB8501C1F888900E
:102C2000D4F88821AB401A43022EC4F88821C1F899
:102C30000881E4D1D4F88C211343C4F88C31DEE749
:102C400003F5A674C3F84841D5E7DAF80000FFF7AA
:102C5000BFFF4FF0FF30DCE748080020EC2C0008F5
:102C6000F8B500BFF8BC08BC9E467047F8B500BF79
:082C7000F8BC08BC9E46704749
:102C78000000000000000000610200088102000856
:102C880000000000000000000503000829030008F8
:102C98000000000000000000E90300080904000823
:102CA80000000000000000009D040008C1040008A6
:102CB8000000000000000000D1090008F109000828
:102CC80000000000000000000102030406070809D4
:102CD80002030405060708090A0B0C0D0E0F101055
:082CE8000102000010000020B1
:082CF000A8FAFF7F01000000BB
:102CF800E1280008350100089D0300083505000893
:0C2D080011010008AD030008450500089B
:102D14000024F40010000000010000001000002056
:102D240000000000FC02002064030020CC0300200B
:102D3400000000000000000000000000000000008F
:102D4400000000000000000000000000000000007F
:102D5400000000000000000000000000000000006F
:102D6400000000000000000000000000000000005F
:102D7400000000000000000000000000000000004F
:102D8400000000000000000000000000000000003F
:102D9400000000000000000000000000000000002F
:102DA400000000000000000000000000000000001F
:102DB400000000000000000000000000000000000F
:102DC40000000000000000000100000000000000FE
:102DD4000E33CDAB34126DE6ECDE05000B000000C3
:102DE40000000000000000000000000000000000DF
:102DF40000000000000000000000000000000000CF
:102E040000000000000000000000000000000000BE
:102E140000000000000000000000000000000000AE
:1031540038040020380400204004002040040020EB
:10316400480400204804002050040020500400209B
:10317400580400205804002060040020600400204B
:1031840068040020680400207004002070040020FB
:1031940078040020780400208004002080040020AB
:1031A400880400208804002090040020900400205B
:1031B4009804002098040020A0040020A00400200B
:1031C400A8040020A8040020B0040020B0040020BB
:1031D400B8040020B8040020C0040020C00400206B
:1031E400C8040020C8040020D0040020D00400201B
:1031F400D8040020D8040020E0040020E0040020CB
:10320400E8040020E8040020F0040020F00400207A
:10321400F8040020F8040020000500200005002028
:1032240008050020080500201005002010050020D6
:103234001805002018050020200500202005002086
:103244002805002028050020300500203005002036
:1032540038050020380500204005002040050020E6
:103264004805002048050020500500205005002096
:103274005805002058050020600500206005002046
:1032840068050020680500207005002070050020F6
:1032940078050020780500208005002080050020A6
:1032A4008805002088050020900500209005002056
:1032B4009805002098050020A0050020A005002006
:1032C400A8050020A8050020B0050020B0050020B6
:1032D400B8050020B8050020C0050020C005002066
:1032E400C8050020C8050020D0050020D005002016
:1032F400D8050020D8050020E0050020E0050020C6
:10330400E8050020E8050020F0050020F005002075
:10331400F8050020F8050020000600200006002023
:1033240008060020080600201006002010060020D1
:103334001806002018060020200600202006002081
:103344002806002028060020300600203006002031
:1033540038060020380600204006002040060020E1
:103364004806002048060020500600205006002091
:103374005806002058060020600600206006002041
:1033840068060020680600207006002070060020F1
:1033940078060020780600208006002080060020A1
:1033A4008806002088060020900600209006002051
:1033B4009806002098060020A0060020A006002001
:1033C400A8060020A8060020B0060020B0060020B1
:1033D400B8060020B8060020C0060020C006002061
:1033E400C8060020C8060020D0060020D006002011
:1033F400D8060020D8060020E0060020E0060020C1
:10340400E8060020E8060020F0060020F006002070
:10341400F8060020F806002000070020000700201E
:1034240008070020080700201007002010070020CC
:10343400180700201807002020070020200700207C
:10344400280700202807002030070020300700202C
:1034540038070020380700204007002040070020DC
:10346400480700204807002050070020500700208C
:10347400580700205807002060070020600700203C
:1034840068070020680700207007002070070020EC
:10349400780700207807002080070020800700209C
:1034A400880700208807002090070020900700204C
:1034B4009807002098070020A0070020A0070020FC
:1034C400A8070020A8070020B0070020B0070020AC
:1034D400B8070020B8070020C0070020C00700205C
:1034E400C8070020C8070020D0070020D00700200C
:1034F400D8070020D8070020E0070020E0070020BC
:10350400E8070020E8070020F0070020F00700206B
:10351400F8070020F8070020000800200008002019
:1035240008080020080800201008002010080020C7
:103534001808002018080020200800202008002077
:103544002808002028080020300800203008002027
:0C355400FFFFFFFF00000200C008002085
:040000050800274D7B
:00000001FF
